{
  "_format": "hh-sol-artifact-1",
  "contractName": "MyToken",
  "sourceName": "contracts/Token.sol",
  "abi": [
    {
      "inputs": [
        {
          "internalType": "address",
          "name": "initialOwner",
          "type": "address"
        },
        {
          "internalType": "string",
          "name": "tokenName",
          "type": "string"
        },
        {
          "internalType": "string",
          "name": "tokenSymbol",
          "type": "string"
        }
      ],
      "stateMutability": "nonpayable",
      "type": "constructor"
    },
    {
      "inputs": [
        {
          "internalType": "address",
          "name": "spender",
          "type": "address"
        },
        {
          "internalType": "uint256",
          "name": "allowance",
          "type": "uint256"
        },
        {
          "internalType": "uint256",
          "name": "needed",
          "type": "uint256"
        }
      ],
      "name": "ERC20InsufficientAllowance",
      "type": "error"
    },
    {
      "inputs": [
        {
          "internalType": "address",
          "name": "sender",
          "type": "address"
        },
        {
          "internalType": "uint256",
          "name": "balance",
          "type": "uint256"
        },
        {
          "internalType": "uint256",
          "name": "needed",
          "type": "uint256"
        }
      ],
      "name": "ERC20InsufficientBalance",
      "type": "error"
    },
    {
      "inputs": [
        {
          "internalType": "address",
          "name": "approver",
          "type": "address"
        }
      ],
      "name": "ERC20InvalidApprover",
      "type": "error"
    },
    {
      "inputs": [
        {
          "internalType": "address",
          "name": "receiver",
          "type": "address"
        }
      ],
      "name": "ERC20InvalidReceiver",
      "type": "error"
    },
    {
      "inputs": [
        {
          "internalType": "address",
          "name": "sender",
          "type": "address"
        }
      ],
      "name": "ERC20InvalidSender",
      "type": "error"
    },
    {
      "inputs": [
        {
          "internalType": "address",
          "name": "spender",
          "type": "address"
        }
      ],
      "name": "ERC20InvalidSpender",
      "type": "error"
    },
    {
      "inputs": [
        {
          "internalType": "address",
          "name": "owner",
          "type": "address"
        }
      ],
      "name": "OwnableInvalidOwner",
      "type": "error"
    },
    {
      "inputs": [
        {
          "internalType": "address",
          "name": "account",
          "type": "address"
        }
      ],
      "name": "OwnableUnauthorizedAccount",
      "type": "error"
    },
    {
      "anonymous": false,
      "inputs": [
        {
          "indexed": true,
          "internalType": "address",
          "name": "owner",
          "type": "address"
        },
        {
          "indexed": true,
          "internalType": "address",
          "name": "spender",
          "type": "address"
        },
        {
          "indexed": false,
          "internalType": "uint256",
          "name": "value",
          "type": "uint256"
        }
      ],
      "name": "Approval",
      "type": "event"
    },
    {
      "anonymous": false,
      "inputs": [
        {
          "indexed": true,
          "internalType": "address",
          "name": "previousOwner",
          "type": "address"
        },
        {
          "indexed": true,
          "internalType": "address",
          "name": "newOwner",
          "type": "address"
        }
      ],
      "name": "OwnershipTransferred",
      "type": "event"
    },
    {
      "anonymous": false,
      "inputs": [
        {
          "indexed": true,
          "internalType": "address",
          "name": "from",
          "type": "address"
        },
        {
          "indexed": true,
          "internalType": "address",
          "name": "to",
          "type": "address"
        },
        {
          "indexed": false,
          "internalType": "uint256",
          "name": "value",
          "type": "uint256"
        }
      ],
      "name": "Transfer",
      "type": "event"
    },
    {
      "inputs": [
        {
          "internalType": "address",
          "name": "owner",
          "type": "address"
        },
        {
          "internalType": "address",
          "name": "spender",
          "type": "address"
        }
      ],
      "name": "allowance",
      "outputs": [
        {
          "internalType": "uint256",
          "name": "",
          "type": "uint256"
        }
      ],
      "stateMutability": "view",
      "type": "function"
    },
    {
      "inputs": [
        {
          "internalType": "address",
          "name": "spender",
          "type": "address"
        },
        {
          "internalType": "uint256",
          "name": "value",
          "type": "uint256"
        }
      ],
      "name": "approve",
      "outputs": [
        {
          "internalType": "bool",
          "name": "",
          "type": "bool"
        }
      ],
      "stateMutability": "nonpayable",
      "type": "function"
    },
    {
      "inputs": [
        {
          "internalType": "address",
          "name": "account",
          "type": "address"
        }
      ],
      "name": "balanceOf",
      "outputs": [
        {
          "internalType": "uint256",
          "name": "",
          "type": "uint256"
        }
      ],
      "stateMutability": "view",
      "type": "function"
    },
    {
      "inputs": [],
      "name": "decimals",
      "outputs": [
        {
          "internalType": "uint8",
          "name": "",
          "type": "uint8"
        }
      ],
      "stateMutability": "view",
      "type": "function"
    },
    {
      "inputs": [
        {
          "internalType": "address",
          "name": "to",
          "type": "address"
        },
        {
          "internalType": "uint256",
          "name": "amount",
          "type": "uint256"
        }
      ],
      "name": "mint",
      "outputs": [],
      "stateMutability": "nonpayable",
      "type": "function"
    },
    {
      "inputs": [],
      "name": "name",
      "outputs": [
        {
          "internalType": "string",
          "name": "",
          "type": "string"
        }
      ],
      "stateMutability": "view",
      "type": "function"
    },
    {
      "inputs": [],
      "name": "owner",
      "outputs": [
        {
          "internalType": "address",
          "name": "",
          "type": "address"
        }
      ],
      "stateMutability": "view",
      "type": "function"
    },
    {
      "inputs": [],
      "name": "renounceOwnership",
      "outputs": [],
      "stateMutability": "nonpayable",
      "type": "function"
    },
    {
      "inputs": [],
      "name": "symbol",
      "outputs": [
        {
          "internalType": "string",
          "name": "",
          "type": "string"
        }
      ],
      "stateMutability": "view",
      "type": "function"
    },
    {
      "inputs": [],
      "name": "totalSupply",
      "outputs": [
        {
          "internalType": "uint256",
          "name": "",
          "type": "uint256"
        }
      ],
      "stateMutability": "view",
      "type": "function"
    },
    {
      "inputs": [
        {
          "internalType": "address",
          "name": "to",
          "type": "address"
        },
        {
          "internalType": "uint256",
          "name": "value",
          "type": "uint256"
        }
      ],
      "name": "transfer",
      "outputs": [
        {
          "internalType": "bool",
          "name": "",
          "type": "bool"
        }
      ],
      "stateMutability": "nonpayable",
      "type": "function"
    },
    {
      "inputs": [
        {
          "internalType": "address",
          "name": "from",
          "type": "address"
        },
        {
          "internalType": "address",
          "name": "to",
          "type": "address"
        },
        {
          "internalType": "uint256",
          "name": "value",
          "type": "uint256"
        }
      ],
      "name": "transferFrom",
      "outputs": [
        {
          "internalType": "bool",
          "name": "",
          "type": "bool"
        }
      ],
      "stateMutability": "nonpayable",
      "type": "function"
    },
    {
      "inputs": [
        {
          "internalType": "address",
          "name": "newOwner",
          "type": "address"
        }
      ],
      "name": "transferOwnership",
      "outputs": [],
      "stateMutability": "nonpayable",
      "type": "function"
    }
  ],
  "bytecode": "0x60806040523480156200001157600080fd5b5060405162001f1f38038062001f1f8339818101604052810190620000379190620006b1565b82828281600390816200004b919062000996565b5080600490816200005d919062000996565b505050600073ffffffffffffffffffffffffffffffffffffffff168173ffffffffffffffffffffffffffffffffffffffff1603620000d55760006040517f1e4fbdf7000000000000000000000000000000000000000000000000000000008152600401620000cc919062000a8e565b60405180910390fd5b620000e6816200012d60201b60201c565b506200012433620000fc620001f360201b60201c565b600a6200010a919062000c3b565b606462000118919062000c8c565b620001fc60201b60201c565b50505062000d7d565b6000600560009054906101000a900473ffffffffffffffffffffffffffffffffffffffff16905081600560006101000a81548173ffffffffffffffffffffffffffffffffffffffff021916908373ffffffffffffffffffffffffffffffffffffffff1602179055508173ffffffffffffffffffffffffffffffffffffffff168173ffffffffffffffffffffffffffffffffffffffff167f8be0079c531659141344cd1fd0a4f28419497f9722a3daafe3b4186f6b6457e060405160405180910390a35050565b60006012905090565b600073ffffffffffffffffffffffffffffffffffffffff168273ffffffffffffffffffffffffffffffffffffffff1603620002715760006040517fec442f0500000000000000000000000000000000000000000000000000000000815260040162000268919062000a8e565b60405180910390fd5b62000285600083836200028960201b60201c565b5050565b600073ffffffffffffffffffffffffffffffffffffffff168373ffffffffffffffffffffffffffffffffffffffff1603620002df578060026000828254620002d2919062000cd7565b92505081905550620003b5565b60008060008573ffffffffffffffffffffffffffffffffffffffff1673ffffffffffffffffffffffffffffffffffffffff168152602001908152602001600020549050818110156200036e578381836040517fe450d38c000000000000000000000000000000000000000000000000000000008152600401620003659392919062000d23565b60405180910390fd5b8181036000808673ffffffffffffffffffffffffffffffffffffffff1673ffffffffffffffffffffffffffffffffffffffff16815260200190815260200160002081905550505b600073ffffffffffffffffffffffffffffffffffffffff168273ffffffffffffffffffffffffffffffffffffffff16036200040057806002600082825403925050819055506200044d565b806000808473ffffffffffffffffffffffffffffffffffffffff1673ffffffffffffffffffffffffffffffffffffffff168152602001908152602001600020600082825401925050819055505b8173ffffffffffffffffffffffffffffffffffffffff168373ffffffffffffffffffffffffffffffffffffffff167fddf252ad1be2c89b69c2b068fc378daa952ba7f163c4a11628f55a4df523b3ef83604051620004ac919062000d60565b60405180910390a3505050565b6000604051905090565b600080fd5b600080fd5b600073ffffffffffffffffffffffffffffffffffffffff82169050919050565b6000620004fa82620004cd565b9050919050565b6200050c81620004ed565b81146200051857600080fd5b50565b6000815190506200052c8162000501565b92915050565b600080fd5b600080fd5b6000601f19601f8301169050919050565b7f4e487b7100000000000000000000000000000000000000000000000000000000600052604160045260246000fd5b62000587826200053c565b810181811067ffffffffffffffff82111715620005a957620005a86200054d565b5b80604052505050565b6000620005be620004b9565b9050620005cc82826200057c565b919050565b600067ffffffffffffffff821115620005ef57620005ee6200054d565b5b620005fa826200053c565b9050602081019050919050565b60005b83811015620006275780820151818401526020810190506200060a565b60008484015250505050565b60006200064a6200064484620005d1565b620005b2565b90508281526020810184848401111562000669576200066862000537565b5b6200067684828562000607565b509392505050565b600082601f83011262000696576200069562000532565b5b8151620006a884826020860162000633565b91505092915050565b600080600060608486031215620006cd57620006cc620004c3565b5b6000620006dd868287016200051b565b935050602084015167ffffffffffffffff811115620007015762000700620004c8565b5b6200070f868287016200067e565b925050604084015167ffffffffffffffff811115620007335762000732620004c8565b5b62000741868287016200067e565b9150509250925092565b600081519050919050565b7f4e487b7100000000000000000000000000000000000000000000000000000000600052602260045260246000fd5b600060028204905060018216806200079e57607f821691505b602082108103620007b457620007b362000756565b5b50919050565b60008190508160005260206000209050919050565b60006020601f8301049050919050565b600082821b905092915050565b6000600883026200081e7fffffffffffffffffffffffffffffffffffffffffffffffffffffffffffffffff82620007df565b6200082a8683620007df565b95508019841693508086168417925050509392505050565b6000819050919050565b6000819050919050565b600062000877620008716200086b8462000842565b6200084c565b62000842565b9050919050565b6000819050919050565b620008938362000856565b620008ab620008a2826200087e565b848454620007ec565b825550505050565b600090565b620008c2620008b3565b620008cf81848462000888565b505050565b5b81811015620008f757620008eb600082620008b8565b600181019050620008d5565b5050565b601f82111562000946576200091081620007ba565b6200091b84620007cf565b810160208510156200092b578190505b620009436200093a85620007cf565b830182620008d4565b50505b505050565b600082821c905092915050565b60006200096b600019846008026200094b565b1980831691505092915050565b600062000986838362000958565b9150826002028217905092915050565b620009a1826200074b565b67ffffffffffffffff811115620009bd57620009bc6200054d565b5b620009c9825462000785565b620009d6828285620008fb565b600060209050601f83116001811462000a0e5760008415620009f9578287015190505b62000a05858262000978565b86555062000a75565b601f19841662000a1e86620007ba565b60005b8281101562000a485784890151825560018201915060208501945060208101905062000a21565b8683101562000a68578489015162000a64601f89168262000958565b8355505b6001600288020188555050505b505050505050565b62000a8881620004ed565b82525050565b600060208201905062000aa5600083018462000a7d565b92915050565b7f4e487b7100000000000000000000000000000000000000000000000000000000600052601160045260246000fd5b60008160011c9050919050565b6000808291508390505b600185111562000b395780860481111562000b115762000b1062000aab565b5b600185161562000b215780820291505b808102905062000b318562000ada565b945062000af1565b94509492505050565b60008262000b54576001905062000c27565b8162000b64576000905062000c27565b816001811462000b7d576002811462000b885762000bbe565b600191505062000c27565b60ff84111562000b9d5762000b9c62000aab565b5b8360020a91508482111562000bb75762000bb662000aab565b5b5062000c27565b5060208310610133831016604e8410600b841016171562000bf85782820a90508381111562000bf25762000bf162000aab565b5b62000c27565b62000c07848484600162000ae7565b9250905081840481111562000c215762000c2062000aab565b5b81810290505b9392505050565b600060ff82169050919050565b600062000c488262000842565b915062000c558362000c2e565b925062000c847fffffffffffffffffffffffffffffffffffffffffffffffffffffffffffffffff848462000b42565b905092915050565b600062000c998262000842565b915062000ca68362000842565b925082820262000cb68162000842565b9150828204841483151762000cd05762000ccf62000aab565b5b5092915050565b600062000ce48262000842565b915062000cf18362000842565b925082820190508082111562000d0c5762000d0b62000aab565b5b92915050565b62000d1d8162000842565b82525050565b600060608201905062000d3a600083018662000a7d565b62000d49602083018562000d12565b62000d58604083018462000d12565b949350505050565b600060208201905062000d77600083018462000d12565b92915050565b6111928062000d8d6000396000f3fe608060405234801561001057600080fd5b50600436106100cf5760003560e01c806370a082311161008c57806395d89b411161006657806395d89b4114610202578063a9059cbb14610220578063dd62ed3e14610250578063f2fde38b14610280576100cf565b806370a08231146101aa578063715018a6146101da5780638da5cb5b146101e4576100cf565b806306fdde03146100d4578063095ea7b3146100f257806318160ddd1461012257806323b872dd14610140578063313ce5671461017057806340c10f191461018e575b600080fd5b6100dc61029c565b6040516100e99190610de6565b60405180910390f35b61010c60048036038101906101079190610ea1565b61032e565b6040516101199190610efc565b60405180910390f35b61012a610351565b6040516101379190610f26565b60405180910390f35b61015a60048036038101906101559190610f41565b61035b565b6040516101679190610efc565b60405180910390f35b61017861038a565b6040516101859190610fb0565b60405180910390f35b6101a860048036038101906101a39190610ea1565b610393565b005b6101c460048036038101906101bf9190610fcb565b6103a1565b6040516101d19190610f26565b60405180910390f35b6101e26103e9565b005b6101ec6103fd565b6040516101f99190611007565b60405180910390f35b61020a610427565b6040516102179190610de6565b60405180910390f35b61023a60048036038101906102359190610ea1565b6104b9565b6040516102479190610efc565b60405180910390f35b61026a60048036038101906102659190611022565b6104dc565b6040516102779190610f26565b60405180910390f35b61029a60048036038101906102959190610fcb565b610563565b005b6060600380546102ab90611091565b80601f01602080910402602001604051908101604052809291908181526020018280546102d790611091565b80156103245780601f106102f957610100808354040283529160200191610324565b820191906000526020600020905b81548152906001019060200180831161030757829003601f168201915b5050505050905090565b6000806103396105e9565b90506103468185856105f1565b600191505092915050565b6000600254905090565b6000806103666105e9565b9050610373858285610603565b61037e858585610697565b60019150509392505050565b60006012905090565b61039d828261078b565b5050565b60008060008373ffffffffffffffffffffffffffffffffffffffff1673ffffffffffffffffffffffffffffffffffffffff168152602001908152602001600020549050919050565b6103f161080d565b6103fb6000610894565b565b6000600560009054906101000a900473ffffffffffffffffffffffffffffffffffffffff16905090565b60606004805461043690611091565b80601f016020809104026020016040519081016040528092919081815260200182805461046290611091565b80156104af5780601f10610484576101008083540402835291602001916104af565b820191906000526020600020905b81548152906001019060200180831161049257829003601f168201915b5050505050905090565b6000806104c46105e9565b90506104d1818585610697565b600191505092915050565b6000600160008473ffffffffffffffffffffffffffffffffffffffff1673ffffffffffffffffffffffffffffffffffffffff16815260200190815260200160002060008373ffffffffffffffffffffffffffffffffffffffff1673ffffffffffffffffffffffffffffffffffffffff16815260200190815260200160002054905092915050565b61056b61080d565b600073ffffffffffffffffffffffffffffffffffffffff168173ffffffffffffffffffffffffffffffffffffffff16036105dd5760006040517f1e4fbdf70000000000000000000000000000000000000000000000000000000081526004016105d49190611007565b60405180910390fd5b6105e681610894565b50565b600033905090565b6105fe838383600161095a565b505050565b600061060f84846104dc565b90507fffffffffffffffffffffffffffffffffffffffffffffffffffffffffffffffff81146106915781811015610681578281836040517ffb8f41b2000000000000000000000000000000000000000000000000000000008152600401610678939291906110c2565b60405180910390fd5b6106908484848403600061095a565b5b50505050565b600073ffffffffffffffffffffffffffffffffffffffff168373ffffffffffffffffffffffffffffffffffffffff16036107095760006040517f96c6fd1e0000000000000000000000000000000000000000000000000000000081526004016107009190611007565b60405180910390fd5b600073ffffffffffffffffffffffffffffffffffffffff168273ffffffffffffffffffffffffffffffffffffffff160361077b5760006040517fec442f050000000000000000000000000000000000000000000000000000000081526004016107729190611007565b60405180910390fd5b610786838383610b31565b505050565b600073ffffffffffffffffffffffffffffffffffffffff168273ffffffffffffffffffffffffffffffffffffffff16036107fd5760006040517fec442f050000000000000000000000000000000000000000000000000000000081526004016107f49190611007565b60405180910390fd5b61080960008383610b31565b5050565b6108156105e9565b73ffffffffffffffffffffffffffffffffffffffff166108336103fd565b73ffffffffffffffffffffffffffffffffffffffff1614610892576108566105e9565b6040517f118cdaa70000000000000000000000000000000000000000000000000000000081526004016108899190611007565b60405180910390fd5b565b6000600560009054906101000a900473ffffffffffffffffffffffffffffffffffffffff16905081600560006101000a81548173ffffffffffffffffffffffffffffffffffffffff021916908373ffffffffffffffffffffffffffffffffffffffff1602179055508173ffffffffffffffffffffffffffffffffffffffff168173ffffffffffffffffffffffffffffffffffffffff167f8be0079c531659141344cd1fd0a4f28419497f9722a3daafe3b4186f6b6457e060405160405180910390a35050565b600073ffffffffffffffffffffffffffffffffffffffff168473ffffffffffffffffffffffffffffffffffffffff16036109cc5760006040517fe602df050000000000000000000000000000000000000000000000000000000081526004016109c39190611007565b60405180910390fd5b600073ffffffffffffffffffffffffffffffffffffffff168373ffffffffffffffffffffffffffffffffffffffff1603610a3e5760006040517f94280d62000000000000000000000000000000000000000000000000000000008152600401610a359190611007565b60405180910390fd5b81600160008673ffffffffffffffffffffffffffffffffffffffff1673ffffffffffffffffffffffffffffffffffffffff16815260200190815260200160002060008573ffffffffffffffffffffffffffffffffffffffff1673ffffffffffffffffffffffffffffffffffffffff168152602001908152602001600020819055508015610b2b578273ffffffffffffffffffffffffffffffffffffffff168473ffffffffffffffffffffffffffffffffffffffff167f8c5be1e5ebec7d5bd14f71427d1e84f3dd0314c0f7b2291e5b200ac8c7c3b92584604051610b229190610f26565b60405180910390a35b50505050565b600073ffffffffffffffffffffffffffffffffffffffff168373ffffffffffffffffffffffffffffffffffffffff1603610b83578060026000828254610b779190611128565b92505081905550610c56565b60008060008573ffffffffffffffffffffffffffffffffffffffff1673ffffffffffffffffffffffffffffffffffffffff16815260200190815260200160002054905081811015610c0f578381836040517fe450d38c000000000000000000000000000000000000000000000000000000008152600401610c06939291906110c2565b60405180910390fd5b8181036000808673ffffffffffffffffffffffffffffffffffffffff1673ffffffffffffffffffffffffffffffffffffffff16815260200190815260200160002081905550505b600073ffffffffffffffffffffffffffffffffffffffff168273ffffffffffffffffffffffffffffffffffffffff1603610c9f5780600260008282540392505081905550610cec565b806000808473ffffffffffffffffffffffffffffffffffffffff1673ffffffffffffffffffffffffffffffffffffffff168152602001908152602001600020600082825401925050819055505b8173ffffffffffffffffffffffffffffffffffffffff168373ffffffffffffffffffffffffffffffffffffffff167fddf252ad1be2c89b69c2b068fc378daa952ba7f163c4a11628f55a4df523b3ef83604051610d499190610f26565b60405180910390a3505050565b600081519050919050565b600082825260208201905092915050565b60005b83811015610d90578082015181840152602081019050610d75565b60008484015250505050565b6000601f19601f8301169050919050565b6000610db882610d56565b610dc28185610d61565b9350610dd2818560208601610d72565b610ddb81610d9c565b840191505092915050565b60006020820190508181036000830152610e008184610dad565b905092915050565b600080fd5b600073ffffffffffffffffffffffffffffffffffffffff82169050919050565b6000610e3882610e0d565b9050919050565b610e4881610e2d565b8114610e5357600080fd5b50565b600081359050610e6581610e3f565b92915050565b6000819050919050565b610e7e81610e6b565b8114610e8957600080fd5b50565b600081359050610e9b81610e75565b92915050565b60008060408385031215610eb857610eb7610e08565b5b6000610ec685828601610e56565b9250506020610ed785828601610e8c565b9150509250929050565b60008115159050919050565b610ef681610ee1565b82525050565b6000602082019050610f116000830184610eed565b92915050565b610f2081610e6b565b82525050565b6000602082019050610f3b6000830184610f17565b92915050565b600080600060608486031215610f5a57610f59610e08565b5b6000610f6886828701610e56565b9350506020610f7986828701610e56565b9250506040610f8a86828701610e8c565b9150509250925092565b600060ff82169050919050565b610faa81610f94565b82525050565b6000602082019050610fc56000830184610fa1565b92915050565b600060208284031215610fe157610fe0610e08565b5b6000610fef84828501610e56565b91505092915050565b61100181610e2d565b82525050565b600060208201905061101c6000830184610ff8565b92915050565b6000806040838503121561103957611038610e08565b5b600061104785828601610e56565b925050602061105885828601610e56565b9150509250929050565b7f4e487b7100000000000000000000000000000000000000000000000000000000600052602260045260246000fd5b600060028204905060018216806110a957607f821691505b6020821081036110bc576110bb611062565b5b50919050565b60006060820190506110d76000830186610ff8565b6110e46020830185610f17565b6110f16040830184610f17565b949350505050565b7f4e487b7100000000000000000000000000000000000000000000000000000000600052601160045260246000fd5b600061113382610e6b565b915061113e83610e6b565b9250828201905080821115611156576111556110f9565b5b9291505056fea26469706673582212207135a2cc78047250bf63dd5b875f2412b82ce419ac2a7119d9e866273466290664736f6c63430008140033",
  "linkReferences": {},
  "deployedLinkReferences": {}
}