{
  "_format": "hh-sol-artifact-1",
  "contractName": "AMM",
  "sourceName": "contracts/AMM.sol",
  "abi": [
    {
      "inputs": [
        {
          "internalType": "address",
          "name": "_token0",
          "type": "address"
        },
        {
          "internalType": "address",
          "name": "_token1",
          "type": "address"
        }
      ],
      "stateMutability": "nonpayable",
      "type": "constructor"
    },
    {
      "inputs": [
        {
          "internalType": "uint256",
          "name": "_amount0",
          "type": "uint256"
        },
        {
          "internalType": "uint256",
          "name": "_amount1",
          "type": "uint256"
        }
      ],
      "name": "addLiquidity",
      "outputs": [
        {
          "internalType": "uint256",
          "name": "shares",
          "type": "uint256"
        }
      ],
      "stateMutability": "nonpayable",
      "type": "function"
    },
    {
      "inputs": [
        {
          "internalType": "address",
          "name": "",
          "type": "address"
        }
      ],
      "name": "balanceOf",
      "outputs": [
        {
          "internalType": "uint256",
          "name": "",
          "type": "uint256"
        }
      ],
      "stateMutability": "view",
      "type": "function"
    },
    {
      "inputs": [
        {
          "internalType": "uint256",
          "name": "_shares",
          "type": "uint256"
        }
      ],
      "name": "removeLiquidity",
      "outputs": [
        {
          "internalType": "uint256",
          "name": "d0",
          "type": "uint256"
        },
        {
          "internalType": "uint256",
          "name": "d1",
          "type": "uint256"
        }
      ],
      "stateMutability": "nonpayable",
      "type": "function"
    },
    {
      "inputs": [],
      "name": "reserve0",
      "outputs": [
        {
          "internalType": "uint256",
          "name": "",
          "type": "uint256"
        }
      ],
      "stateMutability": "view",
      "type": "function"
    },
    {
      "inputs": [],
      "name": "reserve1",
      "outputs": [
        {
          "internalType": "uint256",
          "name": "",
          "type": "uint256"
        }
      ],
      "stateMutability": "view",
      "type": "function"
    },
    {
      "inputs": [
        {
          "internalType": "address",
          "name": "_tokenIn",
          "type": "address"
        },
        {
          "internalType": "uint256",
          "name": "_amountIn",
          "type": "uint256"
        }
      ],
      "name": "swap",
      "outputs": [
        {
          "internalType": "uint256",
          "name": "amountOut",
          "type": "uint256"
        }
      ],
      "stateMutability": "nonpayable",
      "type": "function"
    },
    {
      "inputs": [],
      "name": "token0",
      "outputs": [
        {
          "internalType": "contract IERC20",
          "name": "",
          "type": "address"
        }
      ],
      "stateMutability": "view",
      "type": "function"
    },
    {
      "inputs": [],
      "name": "token1",
      "outputs": [
        {
          "internalType": "contract IERC20",
          "name": "",
          "type": "address"
        }
      ],
      "stateMutability": "view",
      "type": "function"
    },
    {
      "inputs": [],
      "name": "totalSupply",
      "outputs": [
        {
          "internalType": "uint256",
          "name": "",
          "type": "uint256"
        }
      ],
      "stateMutability": "view",
      "type": "function"
    }
  ],
  "bytecode": "0x60c06040523480156200001157600080fd5b506040516200153238038062001532833981810160405281019062000037919062000111565b8173ffffffffffffffffffffffffffffffffffffffff1660808173ffffffffffffffffffffffffffffffffffffffff16815250508073ffffffffffffffffffffffffffffffffffffffff1660a08173ffffffffffffffffffffffffffffffffffffffff1681525050505062000158565b600080fd5b600073ffffffffffffffffffffffffffffffffffffffff82169050919050565b6000620000d982620000ac565b9050919050565b620000eb81620000cc565b8114620000f757600080fd5b50565b6000815190506200010b81620000e0565b92915050565b600080604083850312156200012b576200012a620000a7565b5b60006200013b85828601620000fa565b92505060206200014e85828601620000fa565b9150509250929050565b60805160a051611359620001d96000396000818161035c015281816104a40152818161070901528181610805015281816108f2015281816109600152610b760152600081816101f1015281816102b3015281816104030152818161066f015281816107b00152818161089601528181610913015261093f01526113596000f3fe608060405234801561001057600080fd5b50600436106100935760003560e01c806370a082311161006657806370a08231146101105780639c8f9f23146101405780639cd441da14610171578063d004f0f7146101a1578063d21220a7146101d157610093565b80630dfe16811461009857806318160ddd146100b6578063443cb4bc146100d45780635a76f25e146100f2575b600080fd5b6100a06101ef565b6040516100ad9190610da3565b60405180910390f35b6100be610213565b6040516100cb9190610dd7565b60405180910390f35b6100dc610219565b6040516100e99190610dd7565b60405180910390f35b6100fa61021f565b6040516101079190610dd7565b60405180910390f35b61012a60048036038101906101259190610e35565b610225565b6040516101379190610dd7565b60405180910390f35b61015a60048036038101906101559190610e8e565b61023d565b604051610168929190610ebb565b60405180910390f35b61018b60048036038101906101869190610ee4565b6103ff565b6040516101989190610dd7565b60405180910390f35b6101bb60048036038101906101b69190610f24565b6107ac565b6040516101c89190610dd7565b60405180910390f35b6101d9610b74565b6040516101e69190610da3565b60405180910390f35b7f000000000000000000000000000000000000000000000000000000000000000081565b60025481565b60005481565b60015481565b60036020528060005260406000206000915090505481565b600080600254836000546102519190610f93565b61025b9190611004565b91506002548360015461026e9190610f93565b6102789190611004565b90506102843384610b98565b6102a8826000546102959190611035565b826001546102a39190611035565b610c0b565b6000821115610351577f000000000000000000000000000000000000000000000000000000000000000073ffffffffffffffffffffffffffffffffffffffff1663a9059cbb33846040518363ffffffff1660e01b815260040161030c929190611078565b6020604051808303816000875af115801561032b573d6000803e3d6000fd5b505050506040513d601f19601f8201168201806040525081019061034f91906110d9565b505b60008111156103fa577f000000000000000000000000000000000000000000000000000000000000000073ffffffffffffffffffffffffffffffffffffffff1663a9059cbb33836040518363ffffffff1660e01b81526004016103b5929190611078565b6020604051808303816000875af11580156103d4573d6000803e3d6000fd5b505050506040513d601f19601f820116820180604052508101906103f891906110d9565b505b915091565b60007f000000000000000000000000000000000000000000000000000000000000000073ffffffffffffffffffffffffffffffffffffffff166323b872dd3330866040518463ffffffff1660e01b815260040161045e93929190611106565b6020604051808303816000875af115801561047d573d6000803e3d6000fd5b505050506040513d601f19601f820116820180604052508101906104a191906110d9565b507f000000000000000000000000000000000000000000000000000000000000000073ffffffffffffffffffffffffffffffffffffffff166323b872dd3330856040518463ffffffff1660e01b81526004016104ff93929190611106565b6020604051808303816000875af115801561051e573d6000803e3d6000fd5b505050506040513d601f19601f8201168201806040525081019061054291906110d9565b5060008054118061055557506000600154115b156105b757826001546105689190610f93565b826000546105769190610f93565b146105b6576040517f08c379a00000000000000000000000000000000000000000000000000000000081526004016105ad9061119a565b60405180910390fd5b5b6000600254036105dc576105d582846105d09190610f93565b610c1d565b905061061d565b61061a600054600254856105f09190610f93565b6105fa9190611004565b6001546002548561060b9190610f93565b6106159190611004565b610c97565b90505b60008111610660576040517f08c379a000000000000000000000000000000000000000000000000000000000815260040161065790611206565b60405180910390fd5b61066a3382610cb1565b6107a67f000000000000000000000000000000000000000000000000000000000000000073ffffffffffffffffffffffffffffffffffffffff166370a08231306040518263ffffffff1660e01b81526004016106c69190611226565b602060405180830381865afa1580156106e3573d6000803e3d6000fd5b505050506040513d601f19601f820116820180604052508101906107079190611256565b7f000000000000000000000000000000000000000000000000000000000000000073ffffffffffffffffffffffffffffffffffffffff166370a08231306040518263ffffffff1660e01b81526004016107609190611226565b602060405180830381865afa15801561077d573d6000803e3d6000fd5b505050506040513d601f19601f820116820180604052508101906107a19190611256565b610c0b565b92915050565b60007f000000000000000000000000000000000000000000000000000000000000000073ffffffffffffffffffffffffffffffffffffffff168373ffffffffffffffffffffffffffffffffffffffff16148061085357507f000000000000000000000000000000000000000000000000000000000000000073ffffffffffffffffffffffffffffffffffffffff168373ffffffffffffffffffffffffffffffffffffffff16145b610892576040517f08c379a0000000000000000000000000000000000000000000000000000000008152600401610889906112cf565b60405180910390fd5b60007f000000000000000000000000000000000000000000000000000000000000000073ffffffffffffffffffffffffffffffffffffffff168473ffffffffffffffffffffffffffffffffffffffff161490506000806000808461093d577f00000000000000000000000000000000000000000000000000000000000000007f0000000000000000000000000000000000000000000000000000000000000000600154600054610986565b7f00000000000000000000000000000000000000000000000000000000000000007f00000000000000000000000000000000000000000000000000000000000000006000546001545b93509350935093508373ffffffffffffffffffffffffffffffffffffffff166323b872dd33308a6040518463ffffffff1660e01b81526004016109cb93929190611106565b6020604051808303816000875af11580156109ea573d6000803e3d6000fd5b505050506040513d601f19601f82011682018060405250810190610a0e91906110d9565b506000828573ffffffffffffffffffffffffffffffffffffffff166370a08231306040518263ffffffff1660e01b8152600401610a4b9190611226565b602060405180830381865afa158015610a68573d6000803e3d6000fd5b505050506040513d601f19601f82011682018060405250810190610a8c9190611256565b610a969190611035565b905080965060008087610ac0578884610aaf9190611035565b8386610abb91906112ef565b610ad9565b8285610acc91906112ef565b8985610ad89190611035565b5b91509150610ae78282610c0b565b8573ffffffffffffffffffffffffffffffffffffffff1663a9059cbb338b6040518363ffffffff1660e01b8152600401610b22929190611078565b6020604051808303816000875af1158015610b41573d6000803e3d6000fd5b505050506040513d601f19601f82011682018060405250810190610b6591906110d9565b50505050505050505092915050565b7f000000000000000000000000000000000000000000000000000000000000000081565b80600360008473ffffffffffffffffffffffffffffffffffffffff1673ffffffffffffffffffffffffffffffffffffffff1681526020019081526020016000206000828254610be79190611035565b925050819055508060026000828254610c009190611035565b925050819055505050565b81600081905550806001819055505050565b60006003821115610c845781905060006001600284610c3c9190611004565b610c4691906112ef565b90505b81811015610c7e578091506002818285610c639190611004565b610c6d91906112ef565b610c779190611004565b9050610c49565b50610c92565b60008214610c9157600190505b5b919050565b600081831115610ca75781610ca9565b825b905092915050565b80600360008473ffffffffffffffffffffffffffffffffffffffff1673ffffffffffffffffffffffffffffffffffffffff1681526020019081526020016000206000828254610d0091906112ef565b925050819055508060026000828254610d1991906112ef565b925050819055505050565b600073ffffffffffffffffffffffffffffffffffffffff82169050919050565b6000819050919050565b6000610d69610d64610d5f84610d24565b610d44565b610d24565b9050919050565b6000610d7b82610d4e565b9050919050565b6000610d8d82610d70565b9050919050565b610d9d81610d82565b82525050565b6000602082019050610db86000830184610d94565b92915050565b6000819050919050565b610dd181610dbe565b82525050565b6000602082019050610dec6000830184610dc8565b92915050565b600080fd5b6000610e0282610d24565b9050919050565b610e1281610df7565b8114610e1d57600080fd5b50565b600081359050610e2f81610e09565b92915050565b600060208284031215610e4b57610e4a610df2565b5b6000610e5984828501610e20565b91505092915050565b610e6b81610dbe565b8114610e7657600080fd5b50565b600081359050610e8881610e62565b92915050565b600060208284031215610ea457610ea3610df2565b5b6000610eb284828501610e79565b91505092915050565b6000604082019050610ed06000830185610dc8565b610edd6020830184610dc8565b9392505050565b60008060408385031215610efb57610efa610df2565b5b6000610f0985828601610e79565b9250506020610f1a85828601610e79565b9150509250929050565b60008060408385031215610f3b57610f3a610df2565b5b6000610f4985828601610e20565b9250506020610f5a85828601610e79565b9150509250929050565b7f4e487b7100000000000000000000000000000000000000000000000000000000600052601160045260246000fd5b6000610f9e82610dbe565b9150610fa983610dbe565b9250828202610fb781610dbe565b91508282048414831517610fce57610fcd610f64565b5b5092915050565b7f4e487b7100000000000000000000000000000000000000000000000000000000600052601260045260246000fd5b600061100f82610dbe565b915061101a83610dbe565b92508261102a57611029610fd5565b5b828204905092915050565b600061104082610dbe565b915061104b83610dbe565b925082820390508181111561106357611062610f64565b5b92915050565b61107281610df7565b82525050565b600060408201905061108d6000830185611069565b61109a6020830184610dc8565b9392505050565b60008115159050919050565b6110b6816110a1565b81146110c157600080fd5b50565b6000815190506110d3816110ad565b92915050565b6000602082840312156110ef576110ee610df2565b5b60006110fd848285016110c4565b91505092915050565b600060608201905061111b6000830186611069565b6111286020830185611069565b6111356040830184610dc8565b949350505050565b600082825260208201905092915050565b7f78202f207920213d206478202f20647900000000000000000000000000000000600082015250565b600061118460108361113d565b915061118f8261114e565b602082019050919050565b600060208201905081810360008301526111b381611177565b9050919050565b7f736861726573203d203000000000000000000000000000000000000000000000600082015250565b60006111f0600a8361113d565b91506111fb826111ba565b602082019050919050565b6000602082019050818103600083015261121f816111e3565b9050919050565b600060208201905061123b6000830184611069565b92915050565b60008151905061125081610e62565b92915050565b60006020828403121561126c5761126b610df2565b5b600061127a84828501611241565b91505092915050565b7f696e76616c696420746f6b656e00000000000000000000000000000000000000600082015250565b60006112b9600d8361113d565b91506112c482611283565b602082019050919050565b600060208201905081810360008301526112e8816112ac565b9050919050565b60006112fa82610dbe565b915061130583610dbe565b925082820190508082111561131d5761131c610f64565b5b9291505056fea2646970667358221220576859579060b394ccc7edeec0db389cd35e2de816f2cd289aebab19517b918064736f6c63430008140033",
  "linkReferences": {},
  "deployedLinkReferences": {}
}